:020000040000FA
:060000000DEF09F01200F3
:020006001200E6
:06000800C4EF08F0120035
:02000E000100EF
:0C001000361200006C000000010000002F
:04001C00D9CFE6FF53
:10002000E1CFD9FFE6529568936AFE0EDB0401E149
:100030008190FE0EDB50020801E18192818681945D
:100040000000818800008350DF6E8198DFAE06D00B
:10005000818800008350DF6E8198F8D7818081828B
:10006000E552E552E7CFD9FF1200D9CFE6FFE1CF45
:10007000D9FFFD0EDBCFE6FFD1DFE552936AFD0E1F
:10008000DB0401E18190FD0EDB50020801E1819269
:1000900081968194000081880000FE0EDB50836E03
:1000A000956A0000819881808182E552E7CFD9FF6F
:1000B0001200D9CFE6FFE1CFD9FF010EE66EFE0EAA
:1000C000DB50C009E66ED1DFE552E552020EE66E66
:1000D000FE0EDB50C009E66EC8DFE552E552E55280
:1000E000E7CFD9FF1200D9CFE6FFE1CFD9FF010E4C
:1000F000E66EFE0EDB50B809E66EB7DFE552E5525C
:10010000020EE66EFE0EDB50B809E66EAEDFE5527B
:10011000E552E552E7CFD9FF1200D9CFE6FFE1CF94
:10012000D9FF400EF36EFE0EDBCFF4FFF350F45C0C
:1001300011E2010EE66EFE0EDB504009E66E95DF21
:10014000E552E552020EE66E400EE66E8EDFE55297
:10015000E55211D0010EE66E7F0EE66E86DFE552A7
:10016000E552020EE66EFE0EDB50C00F4009E66E51
:100170007CDFE552E552E552E7CFD9FF1200D9CF37
:10018000E6FFE1CFD9FFFE0EDBCFE6FFACDFE552A5
:10019000FD0EDBCFE6FFC1DFE552E552E7CFD9FF29
:1001A0001200818A010EE66E3F0EE66E5EDFE552BA
:1001B000E552020EE66E3F0EE66E57DFE552E5525F
:1001C000E66A77DFE5521200D9CFE6FFE1CFD9FF2B
:1001D000E652FD0EDB503F0802E2020E01D0010E96
:1001E000DF6EFE0EDBCFE6FF7EDFE552FD0EDBCFDE
:1001F000E6FF93DFE552DFCFE6FF10DFE552936ABB
:10020000DF0401E18190020EDF5C01E181928196C1
:100210008184000081880000FC0EDB50836E956AAB
:100220000000819881808182E552E552E7CFD9FFB5
:100230001200D9CFE6FFE1CFD9FF020EE126FD0E75
:10024000DB503F0802E2020E01D0010EE76E010E04
:10025000E7CFDBFFFC0EDB500AE0FE0EDBCFE6FF54
:1002600042DFE552FD0EDBCFE6FF57DFE552010E20
:10027000DBCFE6FFD3DEE5529568936A010EDB041F
:1002800001E18190010EDB50020801E1819281863B
:1002900081840000818800008350DF6E8198818016
:1002A0008182DF5000D0106E020EE15C02E2E16A52
:1002B000E552E16E1050E552E7CFD9FF1200D9CFD9
:1002C000E6FFE1CFD9FFE652010EE66EFD0EDBCF71
:1002D000E6FFFE0EDBCFE6FFACDFE552E552E5526E
:1002E000010EE66EFD0EDBCFE6FFFE0EDBCFE6FF76
:1002F000A0DFE552E552E552DF6EDF5000D0E55257
:10030000E552E7CFD9FF1200D9CFE6FFE1CFD9FF01
:10031000040EE126FE0EDB50DE6EDD6ADECF10F04D
:10032000DDCF11F0FD0EDB50126E136A1350111861
:10033000E8AE02D0113404D01050125C11501358A2
:1003400036E3FC0EDB50E66ED950020FE96EDACFD1
:10035000EAFFE552E750EE6EED6A020EDBCF10F0D9
:10036000030EDBCF11F0FB0EDB50126E136A13503D
:100370001118E8AE02D0113404D01050125C1150A4
:10038000135810E3E66A020EDBCFE6FFDFCFE6FF8D
:100390001BDFE552E552E552020EDB2A030E01E3B4
:1003A000DB2ADBD7DF2A010E01E3DB2AB7D7040EF5
:1003B000E15C02E2E16AE552E16EE552E7CFD9FF86
:1003C0001200D9CFE6FFE1CFD9FF090EE126FE0EDC
:1003D000DB50DE6EDD6AFE0EDB50F80BE842E842D1
:1003E000E842DE6EDD6AFE0EDB50070BE66ED9508A
:1003F000040FE96EDACFEAFFE552E750EE6EED6AE0
:10040000010EF36E060EF3CFDBFF070EDB6A040E60
:10041000DBCF10F0050EDBCF11F0113404E21050E9
:100420000008000E115411E2D950060FE96EDACF20
:10043000EAFF010ED890EE36ED36E806FBE1040E39
:10044000DB06050E01E2DB06E2D7FD0EDB50E66EB1
:10045000D950020FE96EDACFEAFFE552E750EE6EAF
:10046000ED6A020EDBCFE6FFDFCFE6FF28DFE552C5
:10047000E552E76E080EE7CFDBFFDB50E76E060EB6
:10048000DBCF10F0070EDBCF11F0E7501012060E95
:1004900010C0DBFF070E11C0DBFF060EDBCFE6FF4F
:1004A000020EDBCFE6FFDFCFE6FF8EDEE552E55240
:1004B000E552090EE15C02E2E16AE552E16EE552C5
:1004C000E7CFD9FF1200D9CFE6FFE1CFD9FF090E60
:1004D000E126FE0EDB50DE6EDD6AFE0EDB50F80B11
:1004E000E842E842E842DE6EDD6AFE0EDB50070BB2
:1004F000E66ED950040FE96EDACFEAFFE552E75015
:10050000EE6EED6A010EF36E060EF3CFDBFF070E03
:10051000DB6A040EDBCF10F0050EDBCF11F01134D7
:1005200004E210500008000E115411E2D950060FD9
:10053000E96EDACFEAFF010ED890EE36ED36E80626
:10054000FBE1040EDB06050E01E2DB06E2D7FD0E41
:10055000DB50E66ED950020FE96EDACFEAFFE552C2
:10056000E750EE6EED6A020EDBCFE6FFDFCFE6FF6F
:10057000A6DEE552E552E76E080EE7CFDBFF060E7A
:10058000DBCF10F0070EDBCF11F0FF0ED880105636
:10059000000E1156060E10C0DBFF070E11C0DBFF68
:1005A000080EDB50E76E060EDBCF10F0070EDBCF38
:1005B00011F0E7501016116A060E10C0DBFF070E8F
:1005C00011C0DBFF060EDBCFE6FF020EDBCFE6FF3E
:1005D000DFCFE6FFF9DDE552E552E552090EE15CB9
:1005E00002E2E16AE552E16EE552E7CFD9FF12007F
:1005F000D9CFE6FFE1CFD9FF070EE126FC0EDB5095
:10060000E00F106E116A10BE1168020E10C0DBFF01
:10061000030E11C0DBFFD950020FE96EDACFEAFFFB
:10062000050EEC02F3CFEDFFEF02F3CFEEFFF45037
:10063000ED26DE6ADD6ADECF10F0DDCF11F0D89056
:10064000115004E6050E105C000E11582AE2020E4D
:10065000DBCFF6FF030EDBCFF7FFAA0EF6260E0E5A
:10066000F7220800F550E66EFD0EDB50126E136A9D
:10067000DE501224106EDD501320116E1050E66E05
:10068000FE0EDBCFE6FFA0DDE552E552E552020E9D
:10069000DB2A030E01E3DB2ADF2A010E01E3DB2A5A
:1006A000CAD7070EE15C02E2E16AE552E16EE5526B
:1006B000E7CFD9FF12000F0E956E1200D9CFE6FFDB
:1006C000E1CFD9FF060EE126100EDF6EF4DFDF501A
:1006D000836E8350010B0AE18350020B07E18350C4
:1006E000040B04E18350080B01E182D0030EDB6AA6
:1006F000040EDB6A010EF36E050EF3CFDBFFDF386D
:100700000F0BDF6E050EDB50DF5C0CE0050EDB50DF
:10071000020D050EF3CFDBFF030EDB2A040E01E30F
:10072000DB2AF0D7D950030FE96EDACFEAFFEE509B
:10073000ED1010E183A002D0310E62D083A202D06E
:10074000320E5ED083A402D0330E5AD083A602D0DC
:10075000410E56D0D950030FE96EDACFEAFF010EF1
:10076000EE1801E1ED5010E183A002D0340E48D024
:1007700083A202D0350E44D083A402D0360E40D0DE
:1007800083A602D0420E3CD0D950030FE96EDACFD7
:10079000EAFF020EEE1801E1ED5010E183A002D055
:1007A000370E2ED083A202D0380E2AD083A402D0D6
:1007B000390E26D083A602D0430E22D0D950030F83
:1007C000E96EDACFEAFF030EEE1801E1ED5010E119
:1007D00083A002D02A0E14D083A202D0300E10D0F3
:1007E00083A402D0230E0CD083A602D0440E08D0DE
:1007F000DF50E824DF6EDF5002E1100EDF6E67D7B6
:10080000106E060EE15C02E2E16AE552E16E105004
:10081000E552E7CFD9FF1200D9CFE6FFE1CFD9FFEC
:100820008350010B09E18350020B06E18350040B56
:1008300003E18350080B01E0F3D7956AFE0EDBCF8E
:10084000E6FF040EE66EE66ED3DEE552E552E552B3
:10085000E552E7CFD9FF1200D9CFE6FFE1CFD9FFAC
:100860008350010B09E18350020B06E18350040B16
:1008700003E18350080B01E0F3D7956AFE0EDBCF4E
:10088000E6FFFA0EDBCFE6FFFC0EDBCFE6FFB0DEC5
:10089000E552E552E552E552E7CFD9FF1200D9CF34
:1008A000E6FFE1CFD9FFFD0EDBCF10F0FE0EDBCF70
:1008B00011F0300E102400D0E552E7CFD9FF12001E
:1008C000430EE66EE66A020EE66E92DEE552E552F1
:1008D000E5524F0EE66E060EE66E020EE66E88DEFE
:1008E000E552E552E5524E0EE66E0C0EE66E020E35
:1008F000E66E7EDEE552E552E552540EE66E120ECD
:10090000E66E020EE66E74DEE552E552E552200E0A
:10091000E66E180EE66E020EE66E6ADEE552E552EF
:10092000E552300EE66E1E0EE66E020EE66E60DEDC
:10093000E552E552E552300EE66E240EE66E020EEA
:10094000E66E56DEE552E552E5523A0EE66E2A0EA6
:10095000E66E020EE66E4CDEE552E552E552300ED2
:10096000E66EE66E020EE66E43DEE552E552E552B5
:10097000300EE66E360EE66E020EE66E39DEE5529B
:10098000E552E5523A0EE66E3C0EE66E020EE66E5B
:100990002FDEE552E552E552300EE66E420EE66E6F
:1009A000020EE66E25DEE552E552E552300EE66EA9
:1009B000480EE66E020EE66E1BDEE552E552E5528B
:1009C0001200D9CFE6FFE1CFD9FFFD0EDBCF10F04B
:1009D000FE0EDBCF11F00A0E0D6E0E6A10C008F08D
:1009E00011C009F09EEC08F004C010F005C011F031
:1009F00010C0E6FF11C0E6FF52DFE552E552E66E99
:100A0000480EE66E020EE66EF3DDE552E552E55263
:100A1000D950FD0FE96EFF0EDA20EA6E0A0E0D6E58
:100A20000E6AEECF08F0EDCF09F09EEC08F008C09A
:100A3000EEFF09C0EDFFFD0EDBCF10F0FE0EDBCFA9
:100A400011F0060E0D6E0E6A10C008F011C009F00C
:100A50009EEC08F004C010F005C011F010C0E6FFD5
:100A600011C0E6FF1CDFE552E552E66E420EE66E6F
:100A7000020EE66EBDDDE552E552E552D950FD0F9E
:100A8000E96EFF0EDA20EA6E060E0D6E0E6AEECFEC
:100A900008F0EDCF09F09EEC08F008C0EEFF09C0A9
:100AA000EDFFFD0EDBCF10F0FE0EDBCF11F00A0ED6
:100AB0000D6E0E6A10C008F011C009F09EEC08F02F
:100AC00004C010F005C011F010C0E6FF11C0E6FF31
:100AD000E6DEE552E552E66E360EE66E020EE66E94
:100AE00087DDE552E552E552D950FD0FE96EFF0E64
:100AF000DA20EA6E0A0E0D6E0E6AEECF08F0EDCF28
:100B000009F09EEC08F008C0EEFF09C0EDFFFD0EF5
:100B1000DBCF10F0FE0EDBCF11F0060E0D6E0E6A6D
:100B200010C008F011C009F09EEC08F004C010F0ED
:100B300005C011F010C0E6FF11C0E6FFB0DEE552BF
:100B4000E552E66E300EE66E020EE66E51DDE552BF
:100B5000E552E552D950FD0FE96EFF0EDA20EA6E3C
:100B6000060E0D6E0E6AEECF08F0EDCF09F09EEC8A
:100B700008F008C0EEFF09C0EDFFFD0EDBCF10F05E
:100B8000FE0EDBCF11F00A0E0D6E0E6A10C008F0DB
:100B900011C009F09EEC08F004C010F005C011F07F
:100BA00010C0E6FF11C0E6FF7ADEE552E552E66EC0
:100BB000240EE66E020EE66E1BDDE552E552E552AE
:100BC000D950FD0FE96EFF0EDA20EA6E0A0E0D6EA7
:100BD0000E6AEECF08F0EDCF09F09EEC08F008C0E9
:100BE000EEFF09C0EDFFFD0EDBCF10F0FE0EDBCFF8
:100BF00011F0030E0D6E0E6A10C008F011C009F05E
:100C00009EEC08F004C010F005C011F010C0E6FF23
:100C100011C0E6FF44DEE552E552E66E1E0EE66EBA
:100C2000020EE66EE5DCE552E552E552E552E7CF0D
:100C3000D9FF1200D9CFE6FFE1CFD9FFFD0EDBCF00
:100C400010F0FE0EDBCF11F00A0E0D6E0E6A10C012
:100C500008F011C009F09EEC08F004C010F005C0C7
:100C600011F010C0E6FF11C0E6FF19DEE552E552B3
:100C7000E66E480EE66E020EE66EBADCE552E5520E
:100C8000E552D950FD0FE96EFF0EDA20EA6E0A0E2A
:100C90000D6E0E6AEECF08F0EDCF09F09EEC08F075
:100CA00008C0EEFF09C0EDFFFD0EDBCF10F0FE0E19
:100CB000DBCF11F00A0E0D6E0E6A10C008F011C0E5
:100CC00009F09EEC08F004C010F005C011F010C04F
:100CD000E6FF11C0E6FFE3DDE552E552E66E420EA7
:100CE000E66E020EE66E84DCE552E552E552D9501E
:100CF000FD0FE96EFF0EDA20EA6E0A0E0D6E0E6A27
:100D0000EECF08F0EDCF09F09EEC08F008C0EEFF42
:100D100009C0EDFFFD0EDBCF10F0FE0EDBCF11F0B2
:100D20000A0E0D6E0E6A10C008F011C009F09EEC9C
:100D300008F004C010F005C011F010C0E6FF11C0AB
:100D4000E6FFADDDE552E552E66E360EE66E020ECA
:100D5000E66E4EDCE552E552E552D950FD0FE96EE4
:100D6000FF0EDA20EA6E0A0E0D6E0E6AEECF08F064
:100D7000EDCF09F09EEC08F008C0EEFF09C0EDFFD2
:100D8000FD0EDBCF10F0FE0EDBCF11F0060E0D6E68
:100D90000E6A10C008F011C009F09EEC08F004C003
:100DA00010F005C011F010C0E6FF11C0E6FF77DDBE
:100DB000E552E552E66E300EE66E020EE66E18DC87
:100DC000E552E552E552D950FD0FE96EFF0EDA20EB
:100DD000EA6E060E0D6E0E6AEECF08F0EDCF09F04A
:100DE0009EEC08F008C0EEFF09C0EDFFFD0EDBCF62
:100DF00010F0FE0EDBCF11F00A0E0D6E0E6A10C061
:100E000008F011C009F09EEC08F004C010F005C015
:100E100011F010C0E6FF11C0E6FF41DDE552E552DA
:100E2000E66E240EE66E020EE66EF8EC02F0E55277
:100E3000E552E552D950FD0FE96EFF0EDA20EA6E59
:100E40000A0E0D6E0E6AEECF08F0EDCF09F09EECA3
:100E500008F008C0EEFF09C0EDFFFD0EDBCF10F07B
:100E6000FE0EDBCF11F0030E0D6E0E6A10C008F0FF
:100E700011C009F09EEC08F004C010F005C011F09C
:100E800010C0E6FF11C0E6FF0ADDE552E552E66E4E
:100E90001E0EE66E020EE66EF8EC02F0E552E5522A
:0A0EA000E552E552E7CFD9FF12003A
:060EAA0000000000000042
:100EB000005F00000007000700147F147F14242A3D
:100EC0007F2A122313086462364955225000050315
:100ED0000000001C2241000041221C00082A1C2A9C
:100EE0000808083E080800503000000808080808F4
:100EF000003030000020100804023E5149453E00F9
:100F0000427F400042615149462141454B3118140E
:100F1000127F1027454545393C4A4949300171093E
:100F200005033649494936064949291E0036360027
:100F30000000563600000008142241141414141442
:100F400041221408000201510906324979413E7ECE
:100F50001111117E7F494949363E414141227F416D
:100F600041221C7F494949417F090901013E414114
:100F700051327F0808087F00417F41002040413FF7
:100F8000017F081422417F404040407F0204027FDD
:100F90007F0408107F3E4141413E7F090909063E1A
:100FA0004151215E7F0919294646494949310101CC
:100FB0007F01013F4040403F1F2040201F7F2018FD
:100FC000207F6314081463030478040361514945C6
:100FD0004300007F4141020408102041417F00008E
:100FE000040201020440404040400001020400208D
:100FF000545454787F484444383844444420384456
:1010000044487F3854545418087E09010208145487
:10101000543C7F0804047800447D40002040443D57
:1010200000007F10284400417F40007C04180478B1
:101030007C0804047838444444387C1414140808A8
:101040001414187C7C080404084854545420043FA9
:101050004440203C4040207C1C2040201C3C403030
:10106000403C44281028440C5050503C4464544C9C
:1010700044000836410000007F00000041360800AF
:1010800008082A1C08081C2A08080800AA000800EA
:0E1090003838380000000000000000000000AA
:02109E000E0E34
:1010A000F66E000EF76E000EF86E00010900F550A6
:1010B000656F0900F550666F03E1656701D03DD0AB
:1010C0000900F550606F0900F550616F0900F55097
:1010D000626F09000900F550E96E0900F550EA6EEB
:1010E000090009000900F550636F0900F550646FAD
:1010F00009000900F6CF67F0F7CF68F0F8CF69F084
:1011000060C0F6FF61C0F7FF62C0F8FF00016353E3
:1011100002E1645307E00900F550EE6E6307F8E260
:101120006407F9D767C0F6FF68C0F7FF69C0F8FF2A
:0C11300000016507000E665BBFD71200CF
:04113C00006A0EAE89
:10114000A7EF08F00D6C0E1EE86A0E22001E09AE15
:10115000AFEF08F0086C091EE86A0922001EE7ECF0
:1011600008F009BEBFEF08F000AE000C086C091EC5
:10117000E86A0922046C051EE86A0522000C00BE1C
:08118000B6EF08F00188FF0C36
:08118800DACFE4FFE2CFDAFF49
:10119000E6529EAC06D0C450816E9E9C0001010EAA
:1011A0006C6FE552E5CFDAFF1100936AD08EF28EB4
:1011B0009D8C9F8C050EC26E0D0EC16E110EC06E01
:0E11C00000016C5102E0C2826C6BFAD7120083
:0211CE00056AB0
:1011D000046A100EE76ED8900836093604360536D4
:1011E0000D50045C0E50055805E30D50045E0E5082
:0A11F000055A082AE72EF0D7120076
:0611FA00000EF36E00EE92
:1012000000F0040E01D81200EA6002D0EE6AFCD7AA
:0A121000F350E9601200EE6AFCD70B
:06121A0013EE00F023EECC
:1012200000F0F86A019C4FEC08F003EC00F0D5ECFC
:0612300008F0FBD71200DC
:0112360001B6
:020000040030CA
:0100000021DE
:010001000CF2
:010002003FBE
:010003001EDE
:010005008179
:010006008178
:010008000FE8
:01000900C036
:01000A000FE6
:01000B00E014
:01000C000FE4
:01000D0040B2
:00000001FF
